:100000000C942A000C9447000C9447000C94470071
:100010000C9447000C9447000C9447000C94470044
:100020000C9447000C9447000C9447000C94470034
:100030000C9447000C9447000C9447000C94470024
:100040000C9444070C9447000C9447000C94470010
:100050000C94470011241FBECFE5D8E0DEBFCDBF12
:1000600010E0A0E6B0E0E8E4FDE102C005900D92EA
:10007000A038B107D9F710E0A0E8B0E001C01D92A8
:10008000A338B107E1F70E94B40D0C94A20E0C94B2
:100090000000EF92FF920F931F937B018C0120E0F1
:1000A00030E040E05FE40E94F50388238CF0C80153
:1000B000B70120E030E040E05FE40E94C1010E940F
:1000C00055049B01AC01205030404040504806C0D0
:1000D000C801B7010E9455049B01AC01B901CA01D6
:1000E0001F910F91FF90EF900895A0E0B0E0EBE733
:1000F000F0E00C946B0EDC012B01FA019C91923024
:1001000008F439C1EB018881823008F433C194309E
:1001100069F4843009F02FC111969C91119789815F
:10012000981709F428C1A0E6B0E025C1843009F48D
:1001300021C18230A9F4923009F01DC19A01AD01AC
:1001400088E0EA010990AE01E90109929E0181501F
:10015000C1F7E201898111969C918923818308C1AD
:10016000923009F407C112962D903C901397EB0141
:100170008A819B811496AD90BD90CD90DC901797AD
:10018000EC80FD800E811F819101281B390BB90184
:1001900037FF04C066277727621B730B6032710537
:1001A0000CF061C0121613066CF537014801062EDB
:1001B00004C096948794779467940A94D2F721E0C8
:1001C00030E040E050E004C0220F331F441F551FB1
:1001D0006A95D2F721503040404050402E213F21B7
:1001E00040235123211531054105510521F021E01E
:1001F00030E040E050E079018A01E628F72808293C
:1002000019293CC0232BD1F1260E371E350146019A
:10021000062E04C096948794779467940A94D2F734
:1002200021E030E040E050E004C0220F331F441FC3
:10023000551F6A95D2F721503040404050402A2146
:100240003B214C215D21211531054105510521F04E
:1002500021E030E040E050E059016A01A628B728CB
:10026000C828D9280BC0821593052CF01C01AA249C
:10027000BB24650103C0EE24FF24870111969C91E5
:10028000D20111968C91981709F445C0992339F041
:10029000A80197012A193B094C095D0906C0A6016E
:1002A00095012E193F09400B510B57FD08C01182D3
:1002B0003382228224833583468357831DC081E0A5
:1002C00081833382228288279927DC01821B930B4A
:1002D000A40BB50B84839583A683B7830DC0220F2F
:1002E000331F441F551F24833583468357838281E0
:1002F000938101979383828324813581468157813D
:10030000DA01C9010197A109B1098F5F9F4FAF4F72
:10031000BF4328F30BC0918333822282EA0CFB1C7B
:100320000C1D1D1DE482F5820683178383E0808304
:10033000248135814681578157FF1AC0C901AA27F8
:1003400097FDA095BA2F81709070A070B0705695EF
:10035000479537952795822B932BA42BB52B848318
:100360009583A683B7838281938101969383828349
:10037000DF0101C0D201CD01CDB7DEB7E2E10C94BF
:10038000870EA0E2B0E0E7ECF1E00C94770E698311
:100390007A838B839C832D833E834F835887E9E048
:1003A000EE2EF12CEC0EFD1ECE010196B7010E943F
:1003B0007E058E010F5E1F4FCE010596B8010E948B
:1003C0007E058A8991E089278A8BC701B801AE0131
:1003D000475E5F4F0E9475000E94A904A096E6E068
:1003E0000C94930EA0E2B0E0E8EFF1E00C94770EED
:1003F00069837A838B839C832D833E834F835887C5
:10040000F9E0EF2EF12CEC0EFD1ECE010196B701A6
:100410000E947E058E010F5E1F4FCE010596B8012A
:100420000E947E05C701B801AE01475E5F4F0E9482
:1004300075000E94A904A096E6E00C94930EA0E239
:10044000B0E0E5E2F2E00C946B0E69837A838B8373
:100450009C832D833E834F835887CE010196BE0136
:10046000675F7F4F0E947E05CE010596BE016F5EDD
:100470007F4F0E947E059985923088F0898982306D
:10048000C8F0943019F4823051F404C0843029F457
:10049000923081F480E690E0C6C0923049F420E0CA
:1004A0009A858A89981321E02A87CE010996BBC0D4
:1004B000823049F420E09A858A89981321E02A8BBA
:1004C000CE014196B0C02D843E844F8458886D88FB
:1004D0007E888F88988CEE24FF248701AA24BB2471
:1004E000650140E050E060E070E0E0E0F0E0C10174
:1004F00081709070892BE9F0E60CF71C081D191D1E
:100500009A01AB012A0D3B1D4C1D5D1D80E090E062
:10051000A0E0B0E0E614F7040805190520F481E036
:1005200090E0A0E0B0E0BA01A901480F591F6A1F8E
:100530007B1FAA0CBB1CCC1CDD1C97FE08C081E0F5
:1005400090E0A0E0B0E0A82AB92ACA2ADB2A3196B6
:10055000E032F10549F0660C771C881C991C569412
:10056000479437942794C3CFFA85EA892B893C892D
:100570008B859C85280F391F2E5F3F4F17C0CA01FE
:1005800081709070892B61F016950795F794E79428
:1005900080E090E0A0E0B0E8E82AF92A0A2B1B2BC3
:1005A00076956795579547952F5F3F4F77FDE7CF36
:1005B0000CC0440F551F661F771F17FD4160EE0CDE
:1005C000FF1C001F111F21503040403090E05907A0
:1005D00090E0690790E4790760F32B8F3C8FDB0193
:1005E000CA018F779070A070B07080349105A1051A
:1005F000B10561F447FD0AC0E114F10401051105DC
:1006000029F0405C5F4F6F4F7F4F40781A8EFE1786
:1006100011F081E08A8F4D8F5E8F6F8F78A383E01A
:10062000898FCE0149960E94A904A096E2E10C941C
:10063000870EA8E1B0E0EFE1F3E00C94730E69835C
:100640007A838B839C832D833E834F835887B9E0C5
:10065000EB2EF12CEC0EFD1ECE010196B7010E948F
:100660007E058E010F5E1F4FCE010596B8010E94D8
:100670007E052985223008F47EC03989323010F495
:10068000B8017CC08A859A8989278A87243011F02D
:10069000223031F4231709F06EC060E670E06EC0BE
:1006A000343039F41D861E861F86188A1C861B86E8
:1006B00004C0323021F484E08987B7015FC02B8504
:1006C0003C858B899C89281B390B3C872B87ED84C3
:1006D000FE840F851889AD88BE88CF88D88CEA142F
:1006E000FB040C051D0540F4EE0CFF1C001F111F40
:1006F000215030403C872B8720E030E040E050E044
:1007000080E090E0A0E0B0E460E070E0EA14FB0478
:100710000C051D0540F0282B392B4A2B5B2BEA18C2
:10072000FB080C091D09B695A79597958795EE0CC2
:10073000FF1C001F111F6F5F7F4F6F31710531F775
:10074000DA01C9018F779070A070B0708034910584
:10075000A105B10561F427FD0AC0E114F10401050A
:10076000110529F0205C3F4F4F4F5F4F20782D87B8
:100770003E874F87588BBE01675F7F4FCB010E943A
:10078000A9046896EAE00C948F0EA8E1B0E0EBECC7
:10079000F3E00C94770E69837A838B839C832D839B
:1007A0003E834F83588789E0E82EF12CEC0EFD1E26
:1007B000CE010196B7010E947E058E010F5E1F4F8C
:1007C000CE010596B8010E947E058985823040F0F1
:1007D0008989823028F0C701B8010E94F60501C05E
:1007E0008FEF6896E6E00C94930EA8E1B0E0EBEF93
:1007F000F3E00C94770E69837A838B839C832D833B
:100800003E834F83588789E0E82EF12CEC0EFD1EC5
:10081000CE010196B7010E947E058E010F5E1F4F2B
:10082000CE010596B8010E947E058985823040F090
:100830008989823028F0C701B8010E94F60501C0FD
:100840008FEF6896E6E00C94930EA8E1B0E0EBE23F
:10085000F4E00C94770E69837A838B839C832D83D9
:100860003E834F83588789E0E82EF12CEC0EFD1E65
:10087000CE010196B7010E947E058E010F5E1F4FCB
:10088000CE010596B8010E947E058985823040F030
:100890008989823028F0C701B8010E94F60501C09D
:1008A00081E06896E6E00C94930EACE0B0E0EBE5F6
:1008B000F4E00C947B0E69837A838B839C83CE0156
:1008C0000196BE016B5F7F4F0E947E058D81823055
:1008D00061F1823050F1843021F48E81882351F10E
:1008E0002EC02F81388537FD20C06E812F31310514
:1008F0001CF06623F9F023C08EE190E0821B930B7D
:1009000029853A854B855C8504C056954795379572
:1009100027958A95D2F76623B1F05095409530958A
:1009200021953F4F4F4F5F4F0EC020E030E040E039
:1009300050E009C02FEF3FEF4FEF5FE704C020E02A
:1009400030E040E050E8B901CA012C96E2E00C9496
:10095000970EDF92EF92FF920F931F93FC01E480BA
:10096000F58006811781D1808081823048F480E053
:1009700090E0A0E1B0E0E82AF92A0A2B1B2BA5C0E1
:10098000843009F49FC0823021F4EE24FF248701D3
:1009900005C0E114F1040105110519F4E0E0F0E0EF
:1009A00096C0628173819FEF623879070CF05BC05B
:1009B00022E83FEF261B370B2A3131052CF020E0CF
:1009C00030E040E050E02AC0B801A701022E04C088
:1009D00076956795579547950A94D2F781E090E010
:1009E000A0E0B0E004C0880F991FAA1FBB1F2A9582
:1009F000D2F70197A109B1098E219F21A023B1232C
:100A00000097A105B10521F081E090E0A0E0B0E001
:100A10009A01AB01282B392B4A2B5B2BDA01C90138
:100A20008F779070A070B07080349105A105B105EA
:100A300039F427FF09C0205C3F4F4F4F5F4F04C080
:100A4000215C3F4F4F4F5F4FE0E0F0E02030A0E0EF
:100A50003A07A0E04A07A0E45A0710F0E1E0F0E00E
:100A600079018A0127C06038710564F5FB01E158FE
:100A7000FF4FD801C7018F779070A070B07080349D
:100A80009105A105B10539F4E7FE0DC080E490E0C1
:100A9000A0E0B0E004C08FE390E0A0E0B0E0E80E9A
:100AA000F91E0A1F1B1F17FF05C016950795F7941F
:100AB000E794319687E016950795F794E7948A9521
:100AC000D1F705C0EE24FF248701EFEFF0E06E2F91
:100AD000679566276795902F9F77D794DD24D794E5
:100AE0008E2F8695492F462B582F5D29B701CA01B5
:100AF0001F910F91FF90EF90DF900895FC01DB01B3
:100B0000408151812281622F6F7770E0221F22275E
:100B1000221F9381892F880F822B282F30E0991F65
:100B20009927991F11969C93119721153105A9F5C5
:100B3000411551056105710511F482E037C082E865
:100B40009FEF13969C938E9312979A01AB0167E0E7
:100B5000220F331F441F551F6A95D1F783E08C93F2
:100B60000DC0220F331F441F551F12968D919C916B
:100B70001397019713969C938E931297203080E0E1
:100B8000380780E0480780E4580758F314962D93FF
:100B90003D934D935C93179708952F3F310579F45A
:100BA000411551056105710519F484E08C93089590
:100BB00064FF03C081E08C9312C01C9210C02F57B9
:100BC000304013963C932E93129783E08C9387E0EA
:100BD000440F551F661F771F8A95D1F770641496CE
:100BE0004D935D936D937C93179708951F93DC014C
:100BF000FB019C91923008F447C08081823008F458
:100C000043C0943051F411961C91843099F5818140
:100C1000682F70E0611B71093FC0843021F0923071
:100C200031F48230B9F18181882389F12DC0119688
:100C30001C9111978230F1F081811817D9F4129626
:100C40002D913C911397828193818217930794F0A1
:100C500028173907BCF014968D919D910D90BC9189
:100C6000A02D2481358146815781281739074A07ED
:100C70005B0718F4112341F00AC082179307A407F9
:100C8000B50740F4112319F061E070E005C06FEF83
:100C90007FEF02C060E070E0CB011F910895DF9309
:100CA000CF93CDB7DEB7A6E2B0E0E6E2F0E0808118
:100CB00080688C93CF91DF910895DF93CF93CDB768
:100CC000DEB7A6E2B0E0E6E2F0E080818F778C93B9
:100CD000CF91DF910895DF93CF93CDB7DEB7A7E231
:100CE000B0E0E7E2F0E080818F7B8C93A7E2B0E098
:100CF000E7E2F0E080818F778C93A6E2B0E0E6E255
:100D0000F0E0808187608C93A7E2B0E0E7E2F0E05A
:100D100080818F7D8C930E944F06CF91DF91089543
:100D2000DF93CF9300D00F92CDB7DEB7898389814F
:100D3000883028F5A7E2B0E0E7E2F0E08081982F64
:100D4000907E8981892B8C93A6E2B0E0E6E2F0E008
:100D5000808180648C93E6E2F0E0808182958695C4
:100D600086958370882F90E081709070882399F722
:100D7000E4E2F0E0808191819B838A8304C08FEF5D
:100D80009FEF9B838A838A819B810F900F900F90A6
:100D9000CF91DF910895DF93CF930F92CDB7DEB758
:100DA0008983A7E2B0E0E7E2F0E08081982F907EAF
:100DB0008981892B8C930E944F06A6E2B0E0E6E27F
:100DC000F0E0808180648C93E6E2F0E0808182959F
:100DD000869586958370882F90E081709070882327
:100DE00099F7E4E2F0E0808191810F90CF91DF915B
:100DF0000895DF93CF9300D0CDB7DEB79A83898370
:100E000089819A8190938200809381000F900F9046
:100E1000CF91DF910895DF93CF930F92CDB7DEB7D7
:100E200089830E9436078981883088F4A7E2B0E080
:100E3000E7E2F0E08081982F907E8981892B8C9366
:100E4000A6E2B0E0E6E2F0E0808180648C930F904F
:100E5000CF91DF910895DF93CF93CDB7DEB7E4E272
:100E6000F0E080819181CF91DF910895DF93CF935E
:100E7000CDB7DEB7A6E2B0E0E6E2F0E080818860C0
:100E80008C93CF91DF9108951F920F920FB60F921E
:100E900011242F933F934F935F936F937F938F937F
:100EA0009F93AF93BF93EF93FF93DF93CF93CDB710
:100EB000DEB7E0918100F09182000995CF91DF913A
:100EC000FF91EF91BF91AF919F918F917F916F9122
:100ED0005F914F913F912F910F900FBE0F901F90F8
:100EE0001895DF93CF93CDB7DEB7A6E2B0E0E6E288
:100EF000F0E0808180628C93CF91DF910895DF9341
:100F0000CF93CDB7DEB70E947107A0E5B0E0E0E572
:100F1000F0E080818F7D8C93A0E5B0E0E0E5F0E02B
:100F200080818F7B8C93A0E5B0E0E0E5F0E08081EC
:100F30008F778C93CF91DF910895DF93CF9300D07B
:100F40000F92CDB7DEB789836A834B838981843062
:100F500008F054C08A81883008F050C08B818F3FE0
:100F600029F58981882F90E0880F991FFC01E059AD
:100F7000FF4FA081B1818981882F90E0880F991F50
:100F8000FC01E059FF4F0190F081E02D8081482F56
:100F90008A81282F30E081E090E0022E02C0880F85
:100FA000991F0A94E2F7842B8C9328C08B818823A5
:100FB00029F58981882F90E0880F991FFC01E0595D
:100FC000FF4FA081B1818981882F90E0880F991F00
:100FD000FC01E059FF4F0190F081E02D8081482F06
:100FE0008A81282F30E081E090E0022E02C0880F35
:100FF000991F0A94E2F7809584238C930F900F90A9
:101000000F90CF91DF910895DF93CF9300D00F928F
:10101000CDB7DEB789836A834B838981843008F03A
:1010200054C08A81883008F050C08B818F3F29F5E9
:101030008981882F90E0880F991FFC01E859FF4FA4
:10104000A081B1818981882F90E0880F991FFC01D0
:10105000E859FF4F0190F081E02D8081482F8A816F
:10106000282F30E081E090E0022E02C0880F991F07
:101070000A94E2F7842B8C9328C08B81882329F56E
:101080008981882F90E0880F991FFC01E859FF4F54
:10109000A081B1818981882F90E0880F991FFC0180
:1010A000E859FF4F0190F081E02D8081482F8A811F
:1010B000282F30E081E090E0022E02C0880F991FB7
:1010C0000A94E2F7809584238C930F900F900F90F1
:1010D000CF91DF910895DF93CF9300D0CDB7DEB7E6
:1010E00089836A838981843038F58A81883020F544
:1010F0008981882F90E0880F991FFC01E859FF4FE4
:10110000A081B1818981882F90E0880F991FFC010F
:10111000E859FF4F0190F081E02D8081482F8A81AE
:10112000282F30E081E090E0022E02C0880F991F46
:101130000A94E2F784278C930F900F90CF91DF9160
:101140000895DF93CF9300D00F92CDB7DEB78A8397
:101150006B8319828A818430E8F48B818830D0F4E3
:101160008A81882F90E0880F991FFC01E858FF4F73
:101170000190F081E02D8081282F30E08B81882F35
:1011800090E0A90102C0559547958A95E2F7CA01FA
:101190008170898389810F900F900F90CF91DF919B
:1011A0000895DF93CF9300D0CDB7DEB789836A83EC
:1011B0008981843068F48981882F90E0880F991F95
:1011C000FC01E059FF4F0190F081E02D8A8180837E
:1011D0000F900F90CF91DF910895DF93CF9300D0C0
:1011E000CDB7DEB789836A838981843068F48981C9
:1011F000882F90E0880F991FFC01E859FF4F01905C
:10120000F081E02D8A8180830F900F90CF91DF9144
:101210000895DF93CF9300D0CDB7DEB789836A837B
:101220008981843038F58A81883020F58981882F3A
:1012300090E0880F991FFC01E859FF4FA081B18110
:101240008981882F90E0880F991FFC01E859FF4F92
:101250000190F081E02D8081482F8A81282F30E095
:1012600081E090E0022E02C0880F991F0A94E2F7F5
:10127000842B8C930F900F90CF91DF910895DF9383
:10128000CF9300D00F92CDB7DEB789836A834B83AB
:101290008981882F90E0880F991FFC01E859FF4F42
:1012A000A081B1818981882F90E0880F991FFC016E
:1012B000E859FF4F0190F081E02D8081982F8A81BD
:1012C000809598238B81892B8C930F900F900F9092
:1012D000CF91DF910895DF93CF93CDB7DEB76D97B0
:1012E0000FB6F894DEBF0FBECDBF8D8F81E060E0FA
:1012F00040E00E94040881E061E040E00E940408B0
:1013000083E06D8D0E94ED0881E062E04FEF0E9466
:10131000040880E090E0A0E8BFE3898F9A8FAB8F4C
:10132000BC8F698D7A8D8B8D9C8D20E030E04AE7F3
:1013300055E40E941F02DC01CB018D8B9E8BAF8B8D
:10134000B88F6D897E898F89988D20E030E040E8E4
:101350005FE30E94250488232CF481E090E09C8BBD
:101360008B8B3FC06D897E898F89988D20E03FEF00
:101370004FE757E40E94C50318164CF5698D7A8D26
:101380008B8D9C8D20E030E040E251E40E941F02F2
:10139000DC01CB01BC01CD010E944900DC01CB0185
:1013A0009C8B8B8B0FC080E991E09A8B898B89890C
:1013B0009A890197F1F79A8B898B8B899C89019780
:1013C0009C8B8B8B8B899C89009769F714C06D89E6
:1013D0007E898F89988D0E944900DC01CB019C8B0E
:1013E0008B8B8B899C89988B8F878F8598890197A8
:1013F000F1F7988B8F8781E062E040E00E9404085B
:1014000080E090E0A0E8BFE38B879C87AD87BE8734
:101410006B857C858D859E8520E030E04AE755E42C
:101420000E941F02DC01CB018F839887A987BA87AE
:101430006F81788589859A8520E030E040E85FE318
:101440000E94250488232CF481E090E09E838D8304
:101450003FC06F81788589859A8520E03FEF4FE70F
:1014600057E40E94C50318164CF56B857C858D8565
:101470009E8520E030E040E251E40E941F02DC0142
:10148000CB01BC01CD010E944900DC01CB019E8350
:101490008D830FC080E991E09C838B838B819C813D
:1014A0000197F1F79C838B838D819E8101979E83A9
:1014B0008D838D819E81009769F714C06F81788537
:1014C00089859A850E944900DC01CB019E838D832A
:1014D0008D819E819A83898389819A810197F1F711
:1014E0009A8389836D960FB6F894DEBF0FBECDBF89
:1014F000CF91DF910895DF93CF93CDB7DEB7E1971A
:101500000FB6F894DEBF0FBECDBF89AB81E060E0BF
:101510004FEF0E94040881E061E040E00E9404086F
:1015200083E069A90E94ED0881E062E04FEF0E942C
:10153000040880E090E0A0E8BFE38DA79EA7AFA7D6
:10154000B8AB6DA57EA58FA598A92BEA3AEA4AEA21
:1015500050E40E941F02DC01CB0189A79AA7ABA728
:10156000BCA769A57AA58BA59CA520E030E040E842
:101570005FE30E94250488231CF481E088A791C0C2
:1015800069A57AA58BA59CA520E030E04FE753E440
:101590000E94C50318160CF07BC06DA57EA58FA513
:1015A00098A920E030E04AE754E40E941903DC01E6
:1015B000CB018CA39DA3AEA3BFA36CA17DA18EA1E3
:1015C0009FA120E030E04AE755E40E941F02DC01C1
:1015D000CB0188A399A3AAA3BBA368A179A18AA1DF
:1015E0009BA120E030E040E85FE30E9425048823CF
:1015F0002CF481E090E09F8F8E8F3FC068A179A18D
:101600008AA19BA120E03FEF4FE757E40E94C5036A
:1016100018164CF56CA17DA18EA19FA120E030E0B1
:1016200040E251E40E941F02DC01CB01BC01CD016C
:101630000E944900DC01CB019F8F8E8F0FC080E993
:1016400091E09D8F8C8F8C8D9D8D0197F1F79D8FF3
:101650008C8F8E8D9F8D01979F8F8E8F8E8D9F8DFE
:10166000009769F724C068A179A18AA19BA10E9473
:101670004900DC01CB019F8F8E8F8E8D9F8D9B8FBC
:101680008A8F8A8D9B8D0197F1F79B8F8A8F0FC070
:1016900069A57AA58BA59CA50E944900DC01CB0118
:1016A00088A788A5898F898D8A95F1F7898F81E030
:1016B00062E040E00E94040880E090E0A8ECB2E420
:1016C0008D8B9E8BAF8BB88F6D897E898F89988D1E
:1016D0002BEA3AEA4AEA50E40E941F02DC01CB01FD
:1016E000898B9A8BAB8BBC8B69897A898B899C8916
:1016F00020E030E040E85FE30E94250488231CF4EA
:1017000081E0888B91C069897A898B899C8920E0E6
:1017100030E04FE753E40E94C50318160CF07BC07D
:101720006D897E898F89988D20E030E04AE754E406
:101730000E941903DC01CB018C879D87AE87BF8790
:101740006C857D858E859F8520E030E04AE755E4F5
:101750000E941F02DC01CB0188879987AA87BB877B
:10176000688579858A859B8520E030E040E85FE3E5
:101770000E94250488232CF481E090E09F838E83CF
:101780003FC0688579858A859B8520E03FEF4FE7DC
:1017900057E40E94C50318164CF56C857D858E852F
:1017A0009F8520E030E040E251E40E941F02DC010E
:1017B000CB01BC01CD010E944900DC01CB019F831C
:1017C0008E830FC080E991E09D838C838C819D8105
:1017D0000197F1F79D838C838E819F8101979F8371
:1017E0008E838E819F81009769F724C068857985F3
:1017F0008A859B850E944900DC01CB019F838E83F3
:101800008E819F819B838A838A819B810197F1F7D7
:101810009B838A830FC069897A898B899C890E94FE
:101820004900DC01CB01888B8889898389818A956D
:10183000F1F78983E1960FB6F894DEBF0FBECDBFF6
:10184000CF91DF910895DF93CF93CDB7DEB72E9779
:101850000FB6F894DEBF0FBECDBF80E090E0A0E7EA
:10186000B1E48B879C87AD87BE876B857C858D8532
:101870009E8520E030E04AE755E40E941F02DC012B
:10188000CB018F839887A987BA876F8178858985EF
:101890009A8520E030E040E85FE30E942504882339
:1018A0002CF481E090E09E838D833FC06F8178852A
:1018B00089859A8520E03FEF4FE757E40E94C503F2
:1018C00018164CF56B857C858D859E8520E030E073
:1018D00040E251E40E941F02DC01CB01BC01CD01BA
:1018E0000E944900DC01CB019E838D830FC080E9FB
:1018F00091E09C838B838B819C810197F1F79C8382
:101900008B838D819E8101979E838D838D819E81A6
:10191000009769F714C06F81788589859A850E9440
:101920004900DC01CB019E838D838D819E819A834A
:10193000898389819A810197F1F79A83898388E362
:101940000E946B098FE00E946B0981E00E946B0985
:1019500080E060E00E94C30C2E960FB6F894DEBFC4
:101960000FBECDBFCF91DF910895DF93CF93CDB759
:10197000DEB781E00E946B0980E060E00E94C30C4A
:10198000CF91DF910895DF93CF9300D0CDB7DEB72D
:1019900089836A838981882F90E0002496958795B2
:1019A0000794969587950794982F802D982F8A8174
:1019B000890F80680E946B090F900F90CF91DF9183
:1019C0000895DF93CF93CDB7DEB785E00E946B0912
:1019D000CF91DF910895DF93CF93CDB7DEB787E046
:1019E0000E946B09CF91DF910895DF93CF9300D0D0
:1019F0000F92CDB7DEB79B838A831982198215C0F7
:101A00008981282F30E08A819B81FC01E20FF31F3E
:101A100080810E947B0A89818F3021F481E060E01F
:101A20000E94C30C89818F5F89838981282F30E0D0
:101A30008A819B81FC01E20FF31F8081882301F7DB
:101A40000F900F900F90CF91DF910895DF93CF9378
:101A5000CDB7DEB760970FB6F894DEBF0FBECDBF2F
:101A6000988B8F878F8598899C838B838AE0FE0172
:101A70003596DF01982F1D929A95E9F71A8281E039
:101A800089838F859889009771F58981282F30E0A7
:101A9000CE010596FC01E20FF31F108289818F5F52
:101AA000898325C08F8598890097E9F08981E82F7F
:101AB000F0E08B819C812AE030E0B9010E94570E52
:101AC000282FCE010596E80FF91F20838B819C817A
:101AD0002AE030E0B9010E94570ECB019C838B8332
:101AE00089818F5F89838B819C810097D9F6898159
:101AF000815089832DC08A81813021F48DE20E943A
:101B00007B0A1A828981282F30E0CE010596FC01DC
:101B1000E20FF31F8081805D0E947B0A809180002C
:101B2000803121F481E060E00E94C30C809180004C
:101B3000803231F480E060E00E94C30C109280009B
:101B4000809180008F5F809380008981815089839C
:101B50008981882381F660960FB6F894DEBF0FBEA8
:101B6000CDBFCF91DF910895DF93CF93CDB7DEB78F
:101B700062970FB6F894DEBF0FBECDBF80E060E085
:101B80000E94D10881E06FEF0E94D10883E06FEFDF
:101B90000E94D1080E94230C0E946B060E94B50C83
:101BA00081E00E9490069A8B898B29893A89C90124
:101BB000880F991F880F991F820F931F988B8F870B
:101BC0008F8598890E94260D80E090E0AAE7B4E412
:101BD0008B879C87AD87BE876B857C858D859E8531
:101BE00020E030E04AE755E40E941F02DC01CB010F
:101BF0008F839887A987BA876F81788589859A8529
:101C000020E030E040E85FE30E94250488232CF4C4
:101C100081E090E09E838D833FC06F8178858985C8
:101C20009A8520E03FEF4FE757E40E94C50318165E
:101C30004CF56B857C858D859E8520E030E040E20B
:101C400051E40E941F02DC01CB01BC01CD010E94C6
:101C50004900DC01CB019E838D830FC080E991E0B8
:101C60009C838B838B819C810197F1F79C838B8371
:101C70008D819E8101979E838D838D819E810097AA
:101C800069F78CCF6F81788589859A850E94490094
:101C9000DC01CB019E838D838D819E819A83898314
:101CA00089819A810197F1F79A83898377CFAA1B5B
:101CB000BB1B51E107C0AA1FBB1FA617B70710F037
:101CC000A61BB70B881F991F5A95A9F78095909569
:101CD000BC01CD0108952F923F924F925F926F9277
:101CE0007F928F929F92AF92BF92CF92DF92EF92AC
:101CF000FF920F931F93CF93DF93CDB7DEB7CA1B2D
:101D0000DB0B0FB6F894DEBF0FBECDBF09942A8857
:101D1000398848885F846E847D848C849B84AA84FF
:101D2000B984C884DF80EE80FD800C811B81AA818C
:101D3000B981CE0FD11D0FB6F894DEBF0FBECDBF57
:081D4000ED010895F894FFCFB6
:101D480000000000000000003B00380035003200B1
:101D58003A003700340031003900360033003000D3
:00000001FF
